{
  "address": "0xFb5b127770bF9E8c5691a504C596c7fF7BA24362",
  "abi": [
    {
      "inputs": [
        {
          "internalType": "address",
          "name": "_owner",
          "type": "address"
        },
        {
          "internalType": "string",
          "name": "_name",
          "type": "string"
        },
        {
          "internalType": "string",
          "name": "_symbol",
          "type": "string"
        },
        {
          "internalType": "address",
          "name": "_endpoint",
          "type": "address"
        },
        {
          "internalType": "uint256[]",
          "name": "_mintPrices",
          "type": "uint256[]"
        },
        {
          "internalType": "uint256[]",
          "name": "_maxSupplies",
          "type": "uint256[]"
        }
      ],
      "stateMutability": "nonpayable",
      "type": "constructor"
    },
    {
      "inputs": [],
      "name": "AlreadyMinted",
      "type": "error"
    },
    {
      "inputs": [
        {
          "internalType": "address",
          "name": "spender",
          "type": "address"
        },
        {
          "internalType": "uint256",
          "name": "allowance",
          "type": "uint256"
        },
        {
          "internalType": "uint256",
          "name": "needed",
          "type": "uint256"
        }
      ],
      "name": "ERC20InsufficientAllowance",
      "type": "error"
    },
    {
      "inputs": [
        {
          "internalType": "address",
          "name": "sender",
          "type": "address"
        },
        {
          "internalType": "uint256",
          "name": "balance",
          "type": "uint256"
        },
        {
          "internalType": "uint256",
          "name": "needed",
          "type": "uint256"
        }
      ],
      "name": "ERC20InsufficientBalance",
      "type": "error"
    },
    {
      "inputs": [
        {
          "internalType": "address",
          "name": "approver",
          "type": "address"
        }
      ],
      "name": "ERC20InvalidApprover",
      "type": "error"
    },
    {
      "inputs": [
        {
          "internalType": "address",
          "name": "receiver",
          "type": "address"
        }
      ],
      "name": "ERC20InvalidReceiver",
      "type": "error"
    },
    {
      "inputs": [
        {
          "internalType": "address",
          "name": "sender",
          "type": "address"
        }
      ],
      "name": "ERC20InvalidSender",
      "type": "error"
    },
    {
      "inputs": [
        {
          "internalType": "address",
          "name": "spender",
          "type": "address"
        }
      ],
      "name": "ERC20InvalidSpender",
      "type": "error"
    },
    {
      "inputs": [],
      "name": "InsufficientPayment",
      "type": "error"
    },
    {
      "inputs": [],
      "name": "InvalidAddress",
      "type": "error"
    },
    {
      "inputs": [],
      "name": "InvalidAmount",
      "type": "error"
    },
    {
      "inputs": [],
      "name": "InvalidDelegate",
      "type": "error"
    },
    {
      "inputs": [],
      "name": "InvalidEndpointCall",
      "type": "error"
    },
    {
      "inputs": [
        {
          "internalType": "uint16",
          "name": "optionType",
          "type": "uint16"
        }
      ],
      "name": "InvalidOptionType",
      "type": "error"
    },
    {
      "inputs": [
        {
          "internalType": "bytes",
          "name": "options",
          "type": "bytes"
        }
      ],
      "name": "InvalidOptions",
      "type": "error"
    },
    {
      "inputs": [],
      "name": "InvalidPoolId",
      "type": "error"
    },
    {
      "inputs": [],
      "name": "LzTokenUnavailable",
      "type": "error"
    },
    {
      "inputs": [],
      "name": "MintLimitExceeded",
      "type": "error"
    },
    {
      "inputs": [
        {
          "internalType": "uint32",
          "name": "eid",
          "type": "uint32"
        }
      ],
      "name": "NoPeer",
      "type": "error"
    },
    {
      "inputs": [
        {
          "internalType": "uint256",
          "name": "msgValue",
          "type": "uint256"
        }
      ],
      "name": "NotEnoughNative",
      "type": "error"
    },
    {
      "inputs": [],
      "name": "NotWhitelisted",
      "type": "error"
    },
    {
      "inputs": [
        {
          "internalType": "address",
          "name": "addr",
          "type": "address"
        }
      ],
      "name": "OnlyEndpoint",
      "type": "error"
    },
    {
      "inputs": [
        {
          "internalType": "uint32",
          "name": "eid",
          "type": "uint32"
        },
        {
          "internalType": "bytes32",
          "name": "sender",
          "type": "bytes32"
        }
      ],
      "name": "OnlyPeer",
      "type": "error"
    },
    {
      "inputs": [
        {
          "internalType": "address",
          "name": "owner",
          "type": "address"
        }
      ],
      "name": "OwnableInvalidOwner",
      "type": "error"
    },
    {
      "inputs": [
        {
          "internalType": "address",
          "name": "account",
          "type": "address"
        }
      ],
      "name": "OwnableUnauthorizedAccount",
      "type": "error"
    },
    {
      "inputs": [],
      "name": "PoolDisabled",
      "type": "error"
    },
    {
      "inputs": [],
      "name": "PoolFull",
      "type": "error"
    },
    {
      "inputs": [],
      "name": "ReentrancyGuardReentrantCall",
      "type": "error"
    },
    {
      "inputs": [],
      "name": "STokenTransferFailed",
      "type": "error"
    },
    {
      "inputs": [
        {
          "internalType": "uint8",
          "name": "bits",
          "type": "uint8"
        },
        {
          "internalType": "uint256",
          "name": "value",
          "type": "uint256"
        }
      ],
      "name": "SafeCastOverflowedUintDowncast",
      "type": "error"
    },
    {
      "inputs": [
        {
          "internalType": "address",
          "name": "token",
          "type": "address"
        }
      ],
      "name": "SafeERC20FailedOperation",
      "type": "error"
    },
    {
      "inputs": [],
      "name": "TransferFailed",
      "type": "error"
    },
    {
      "anonymous": false,
      "inputs": [
        {
          "indexed": false,
          "internalType": "bool",
          "name": "enabled",
          "type": "bool"
        }
      ],
      "name": "AllPoolsStatusChanged",
      "type": "event"
    },
    {
      "anonymous": false,
      "inputs": [
        {
          "indexed": true,
          "internalType": "address",
          "name": "owner",
          "type": "address"
        },
        {
          "indexed": true,
          "internalType": "address",
          "name": "spender",
          "type": "address"
        },
        {
          "indexed": false,
          "internalType": "uint256",
          "name": "value",
          "type": "uint256"
        }
      ],
      "name": "Approval",
      "type": "event"
    },
    {
      "anonymous": false,
      "inputs": [
        {
          "indexed": true,
          "internalType": "address",
          "name": "user",
          "type": "address"
        },
        {
          "indexed": true,
          "internalType": "uint8",
          "name": "poolId",
          "type": "uint8"
        },
        {
          "indexed": true,
          "internalType": "uint32",
          "name": "srcEid",
          "type": "uint32"
        }
      ],
      "name": "CrossChainMintSynced",
      "type": "event"
    },
    {
      "anonymous": false,
      "inputs": [
        {
          "indexed": true,
          "internalType": "address",
          "name": "from",
          "type": "address"
        },
        {
          "indexed": true,
          "internalType": "address",
          "name": "to",
          "type": "address"
        },
        {
          "indexed": false,
          "internalType": "uint256",
          "name": "amount",
          "type": "uint256"
        },
        {
          "indexed": false,
          "internalType": "uint32",
          "name": "dstEid",
          "type": "uint32"
        }
      ],
      "name": "CrossChainTransfer",
      "type": "event"
    },
    {
      "anonymous": false,
      "inputs": [
        {
          "components": [
            {
              "internalType": "uint32",
              "name": "eid",
              "type": "uint32"
            },
            {
              "internalType": "uint16",
              "name": "msgType",
              "type": "uint16"
            },
            {
              "internalType": "bytes",
              "name": "options",
              "type": "bytes"
            }
          ],
          "indexed": false,
          "internalType": "struct EnforcedOptionParam[]",
          "name": "_enforcedOptions",
          "type": "tuple[]"
        }
      ],
      "name": "EnforcedOptionSet",
      "type": "event"
    },
    {
      "anonymous": false,
      "inputs": [
        {
          "indexed": true,
          "internalType": "address",
          "name": "previousOwner",
          "type": "address"
        },
        {
          "indexed": true,
          "internalType": "address",
          "name": "newOwner",
          "type": "address"
        }
      ],
      "name": "OwnershipTransferred",
      "type": "event"
    },
    {
      "anonymous": false,
      "inputs": [
        {
          "indexed": false,
          "internalType": "uint32",
          "name": "eid",
          "type": "uint32"
        },
        {
          "indexed": false,
          "internalType": "bytes32",
          "name": "peer",
          "type": "bytes32"
        }
      ],
      "name": "PeerSet",
      "type": "event"
    },
    {
      "anonymous": false,
      "inputs": [
        {
          "indexed": true,
          "internalType": "address",
          "name": "user",
          "type": "address"
        },
        {
          "indexed": true,
          "internalType": "uint8",
          "name": "poolId",
          "type": "uint8"
        },
        {
          "indexed": false,
          "internalType": "uint256",
          "name": "amount",
          "type": "uint256"
        },
        {
          "indexed": false,
          "internalType": "uint256",
          "name": "timestamp",
          "type": "uint256"
        }
      ],
      "name": "PoolMinted",
      "type": "event"
    },
    {
      "anonymous": false,
      "inputs": [
        {
          "indexed": true,
          "internalType": "uint8",
          "name": "poolId",
          "type": "uint8"
        },
        {
          "indexed": false,
          "internalType": "bool",
          "name": "enabled",
          "type": "bool"
        }
      ],
      "name": "PoolStatusChanged",
      "type": "event"
    },
    {
      "anonymous": false,
      "inputs": [
        {
          "indexed": true,
          "internalType": "address",
          "name": "oldAddress",
          "type": "address"
        },
        {
          "indexed": true,
          "internalType": "address",
          "name": "newAddress",
          "type": "address"
        }
      ],
      "name": "STokenAddressUpdated",
      "type": "event"
    },
    {
      "anonymous": false,
      "inputs": [
        {
          "indexed": true,
          "internalType": "address",
          "name": "user",
          "type": "address"
        },
        {
          "indexed": false,
          "internalType": "uint256",
          "name": "amount",
          "type": "uint256"
        },
        {
          "indexed": false,
          "internalType": "string",
          "name": "operation",
          "type": "string"
        }
      ],
      "name": "STokenPayment",
      "type": "event"
    },
    {
      "anonymous": false,
      "inputs": [
        {
          "indexed": true,
          "internalType": "address",
          "name": "from",
          "type": "address"
        },
        {
          "indexed": true,
          "internalType": "address",
          "name": "to",
          "type": "address"
        },
        {
          "indexed": false,
          "internalType": "uint256",
          "name": "value",
          "type": "uint256"
        }
      ],
      "name": "Transfer",
      "type": "event"
    },
    {
      "anonymous": false,
      "inputs": [
        {
          "indexed": true,
          "internalType": "uint8",
          "name": "poolId",
          "type": "uint8"
        },
        {
          "indexed": true,
          "internalType": "address",
          "name": "account",
          "type": "address"
        },
        {
          "indexed": false,
          "internalType": "bool",
          "name": "status",
          "type": "bool"
        }
      ],
      "name": "WhitelistUpdated",
      "type": "event"
    },
    {
      "inputs": [],
      "name": "ARBITRUM_CHAIN_ID",
      "outputs": [
        {
          "internalType": "uint256",
          "name": "",
          "type": "uint256"
        }
      ],
      "stateMutability": "view",
      "type": "function"
    },
    {
      "inputs": [],
      "name": "ARBITRUM_EID",
      "outputs": [
        {
          "internalType": "uint32",
          "name": "",
          "type": "uint32"
        }
      ],
      "stateMutability": "view",
      "type": "function"
    },
    {
      "inputs": [],
      "name": "BASE_CHAIN_ID",
      "outputs": [
        {
          "internalType": "uint256",
          "name": "",
          "type": "uint256"
        }
      ],
      "stateMutability": "view",
      "type": "function"
    },
    {
      "inputs": [],
      "name": "BASE_EID",
      "outputs": [
        {
          "internalType": "uint32",
          "name": "",
          "type": "uint32"
        }
      ],
      "stateMutability": "view",
      "type": "function"
    },
    {
      "inputs": [],
      "name": "ETH_CHAIN_ID",
      "outputs": [
        {
          "internalType": "uint256",
          "name": "",
          "type": "uint256"
        }
      ],
      "stateMutability": "view",
      "type": "function"
    },
    {
      "inputs": [],
      "name": "ETH_EID",
      "outputs": [
        {
          "internalType": "uint32",
          "name": "",
          "type": "uint32"
        }
      ],
      "stateMutability": "view",
      "type": "function"
    },
    {
      "inputs": [],
      "name": "LINEA_CHAIN_ID",
      "outputs": [
        {
          "internalType": "uint256",
          "name": "",
          "type": "uint256"
        }
      ],
      "stateMutability": "view",
      "type": "function"
    },
    {
      "inputs": [],
      "name": "LINEA_EID",
      "outputs": [
        {
          "internalType": "uint32",
          "name": "",
          "type": "uint32"
        }
      ],
      "stateMutability": "view",
      "type": "function"
    },
    {
      "inputs": [],
      "name": "MAX_POOLS",
      "outputs": [
        {
          "internalType": "uint256",
          "name": "",
          "type": "uint256"
        }
      ],
      "stateMutability": "view",
      "type": "function"
    },
    {
      "inputs": [],
      "name": "OPTIMISM_CHAIN_ID",
      "outputs": [
        {
          "internalType": "uint256",
          "name": "",
          "type": "uint256"
        }
      ],
      "stateMutability": "view",
      "type": "function"
    },
    {
      "inputs": [],
      "name": "OPTIMISM_EID",
      "outputs": [
        {
          "internalType": "uint32",
          "name": "",
          "type": "uint32"
        }
      ],
      "stateMutability": "view",
      "type": "function"
    },
    {
      "inputs": [],
      "name": "SEND",
      "outputs": [
        {
          "internalType": "uint16",
          "name": "",
          "type": "uint16"
        }
      ],
      "stateMutability": "view",
      "type": "function"
    },
    {
      "inputs": [],
      "name": "SONIC_CHAIN_ID",
      "outputs": [
        {
          "internalType": "uint256",
          "name": "",
          "type": "uint256"
        }
      ],
      "stateMutability": "view",
      "type": "function"
    },
    {
      "inputs": [],
      "name": "SONIC_EID",
      "outputs": [
        {
          "internalType": "uint32",
          "name": "",
          "type": "uint32"
        }
      ],
      "stateMutability": "view",
      "type": "function"
    },
    {
      "inputs": [],
      "name": "WRAPPED_S_TOKEN",
      "outputs": [
        {
          "internalType": "address",
          "name": "",
          "type": "address"
        }
      ],
      "stateMutability": "view",
      "type": "function"
    },
    {
      "inputs": [
        {
          "components": [
            {
              "internalType": "uint32",
              "name": "srcEid",
              "type": "uint32"
            },
            {
              "internalType": "bytes32",
              "name": "sender",
              "type": "bytes32"
            },
            {
              "internalType": "uint64",
              "name": "nonce",
              "type": "uint64"
            }
          ],
          "internalType": "struct Origin",
          "name": "origin",
          "type": "tuple"
        }
      ],
      "name": "allowInitializePath",
      "outputs": [
        {
          "internalType": "bool",
          "name": "",
          "type": "bool"
        }
      ],
      "stateMutability": "view",
      "type": "function"
    },
    {
      "inputs": [
        {
          "internalType": "address",
          "name": "owner",
          "type": "address"
        },
        {
          "internalType": "address",
          "name": "spender",
          "type": "address"
        }
      ],
      "name": "allowance",
      "outputs": [
        {
          "internalType": "uint256",
          "name": "",
          "type": "uint256"
        }
      ],
      "stateMutability": "view",
      "type": "function"
    },
    {
      "inputs": [
        {
          "internalType": "address",
          "name": "spender",
          "type": "address"
        },
        {
          "internalType": "uint256",
          "name": "value",
          "type": "uint256"
        }
      ],
      "name": "approve",
      "outputs": [
        {
          "internalType": "bool",
          "name": "",
          "type": "bool"
        }
      ],
      "stateMutability": "nonpayable",
      "type": "function"
    },
    {
      "inputs": [
        {
          "internalType": "address",
          "name": "account",
          "type": "address"
        }
      ],
      "name": "balanceOf",
      "outputs": [
        {
          "internalType": "uint256",
          "name": "",
          "type": "uint256"
        }
      ],
      "stateMutability": "view",
      "type": "function"
    },
    {
      "inputs": [
        {
          "internalType": "uint32",
          "name": "_eid",
          "type": "uint32"
        },
        {
          "internalType": "uint16",
          "name": "_msgType",
          "type": "uint16"
        },
        {
          "internalType": "bytes",
          "name": "_extraOptions",
          "type": "bytes"
        }
      ],
      "name": "combineOptions",
      "outputs": [
        {
          "internalType": "bytes",
          "name": "",
          "type": "bytes"
        }
      ],
      "stateMutability": "view",
      "type": "function"
    },
    {
      "inputs": [],
      "name": "crossChainEnabled",
      "outputs": [
        {
          "internalType": "bool",
          "name": "",
          "type": "bool"
        }
      ],
      "stateMutability": "view",
      "type": "function"
    },
    {
      "inputs": [
        {
          "internalType": "uint32",
          "name": "",
          "type": "uint32"
        }
      ],
      "name": "crossChainGasLimits",
      "outputs": [
        {
          "internalType": "uint128",
          "name": "",
          "type": "uint128"
        }
      ],
      "stateMutability": "view",
      "type": "function"
    },
    {
      "inputs": [],
      "name": "decimals",
      "outputs": [
        {
          "internalType": "uint8",
          "name": "",
          "type": "uint8"
        }
      ],
      "stateMutability": "view",
      "type": "function"
    },
    {
      "inputs": [],
      "name": "defaultGasLimit",
      "outputs": [
        {
          "internalType": "uint128",
          "name": "",
          "type": "uint128"
        }
      ],
      "stateMutability": "view",
      "type": "function"
    },
    {
      "inputs": [],
      "name": "disableAllPools",
      "outputs": [],
      "stateMutability": "nonpayable",
      "type": "function"
    },
    {
      "inputs": [
        {
          "internalType": "uint8",
          "name": "_poolId",
          "type": "uint8"
        }
      ],
      "name": "disablePool",
      "outputs": [],
      "stateMutability": "nonpayable",
      "type": "function"
    },
    {
      "inputs": [],
      "name": "enableAllPools",
      "outputs": [],
      "stateMutability": "nonpayable",
      "type": "function"
    },
    {
      "inputs": [
        {
          "internalType": "uint8",
          "name": "_poolId",
          "type": "uint8"
        }
      ],
      "name": "enablePool",
      "outputs": [],
      "stateMutability": "nonpayable",
      "type": "function"
    },
    {
      "inputs": [],
      "name": "endpoint",
      "outputs": [
        {
          "internalType": "contract ILayerZeroEndpointV2",
          "name": "",
          "type": "address"
        }
      ],
      "stateMutability": "view",
      "type": "function"
    },
    {
      "inputs": [
        {
          "internalType": "uint32",
          "name": "eid",
          "type": "uint32"
        },
        {
          "internalType": "uint16",
          "name": "msgType",
          "type": "uint16"
        }
      ],
      "name": "enforcedOptions",
      "outputs": [
        {
          "internalType": "bytes",
          "name": "enforcedOption",
          "type": "bytes"
        }
      ],
      "stateMutability": "view",
      "type": "function"
    },
    {
      "inputs": [],
      "name": "getAvailablePools",
      "outputs": [
        {
          "internalType": "uint8[]",
          "name": "",
          "type": "uint8[]"
        }
      ],
      "stateMutability": "view",
      "type": "function"
    },
    {
      "inputs": [
        {
          "internalType": "uint8",
          "name": "_poolId",
          "type": "uint8"
        }
      ],
      "name": "getPoolInfo",
      "outputs": [
        {
          "components": [
            {
              "internalType": "uint256",
              "name": "maxSupply",
              "type": "uint256"
            },
            {
              "internalType": "uint256",
              "name": "mintPrice",
              "type": "uint256"
            },
            {
              "internalType": "uint256",
              "name": "totalMinted",
              "type": "uint256"
            },
            {
              "internalType": "uint256",
              "name": "maxMintsPerWallet",
              "type": "uint256"
            },
            {
              "internalType": "bool",
              "name": "enabled",
              "type": "bool"
            }
          ],
          "internalType": "struct SimpleTokenCrossChainMint.PoolInfo",
          "name": "",
          "type": "tuple"
        }
      ],
      "stateMutability": "view",
      "type": "function"
    },
    {
      "inputs": [
        {
          "internalType": "address",
          "name": "_user",
          "type": "address"
        },
        {
          "internalType": "uint8",
          "name": "_poolId",
          "type": "uint8"
        }
      ],
      "name": "getUserMintCount",
      "outputs": [
        {
          "internalType": "uint256",
          "name": "",
          "type": "uint256"
        }
      ],
      "stateMutability": "view",
      "type": "function"
    },
    {
      "inputs": [
        {
          "internalType": "address",
          "name": "_user",
          "type": "address"
        }
      ],
      "name": "getUserMintInfo",
      "outputs": [
        {
          "internalType": "bool",
          "name": "hasGlobalMint",
          "type": "bool"
        },
        {
          "internalType": "uint32",
          "name": "chainMintedOn",
          "type": "uint32"
        }
      ],
      "stateMutability": "view",
      "type": "function"
    },
    {
      "inputs": [
        {
          "internalType": "address",
          "name": "",
          "type": "address"
        }
      ],
      "name": "hasMintedGlobal",
      "outputs": [
        {
          "internalType": "bool",
          "name": "",
          "type": "bool"
        }
      ],
      "stateMutability": "view",
      "type": "function"
    },
    {
      "inputs": [
        {
          "components": [
            {
              "internalType": "uint32",
              "name": "srcEid",
              "type": "uint32"
            },
            {
              "internalType": "bytes32",
              "name": "sender",
              "type": "bytes32"
            },
            {
              "internalType": "uint64",
              "name": "nonce",
              "type": "uint64"
            }
          ],
          "internalType": "struct Origin",
          "name": "",
          "type": "tuple"
        },
        {
          "internalType": "bytes",
          "name": "",
          "type": "bytes"
        },
        {
          "internalType": "address",
          "name": "_sender",
          "type": "address"
        }
      ],
      "name": "isComposeMsgSender",
      "outputs": [
        {
          "internalType": "bool",
          "name": "",
          "type": "bool"
        }
      ],
      "stateMutability": "view",
      "type": "function"
    },
    {
      "inputs": [
        {
          "components": [
            {
              "internalType": "uint32",
              "name": "srcEid",
              "type": "uint32"
            },
            {
              "internalType": "bytes32",
              "name": "sender",
              "type": "bytes32"
            },
            {
              "internalType": "uint64",
              "name": "nonce",
              "type": "uint64"
            }
          ],
          "internalType": "struct Origin",
          "name": "_origin",
          "type": "tuple"
        },
        {
          "internalType": "bytes32",
          "name": "_guid",
          "type": "bytes32"
        },
        {
          "internalType": "bytes",
          "name": "_message",
          "type": "bytes"
        },
        {
          "internalType": "address",
          "name": "_executor",
          "type": "address"
        },
        {
          "internalType": "bytes",
          "name": "_extraData",
          "type": "bytes"
        }
      ],
      "name": "lzReceive",
      "outputs": [],
      "stateMutability": "payable",
      "type": "function"
    },
    {
      "inputs": [
        {
          "internalType": "uint8",
          "name": "",
          "type": "uint8"
        },
        {
          "internalType": "address",
          "name": "",
          "type": "address"
        }
      ],
      "name": "mintCountPerPool",
      "outputs": [
        {
          "internalType": "uint256",
          "name": "",
          "type": "uint256"
        }
      ],
      "stateMutability": "view",
      "type": "function"
    },
    {
      "inputs": [
        {
          "internalType": "uint8",
          "name": "_poolId",
          "type": "uint8"
        }
      ],
      "name": "mintFromPool",
      "outputs": [],
      "stateMutability": "payable",
      "type": "function"
    },
    {
      "inputs": [
        {
          "internalType": "address",
          "name": "",
          "type": "address"
        }
      ],
      "name": "mintedOnChain",
      "outputs": [
        {
          "internalType": "uint32",
          "name": "",
          "type": "uint32"
        }
      ],
      "stateMutability": "view",
      "type": "function"
    },
    {
      "inputs": [],
      "name": "mintingEnabled",
      "outputs": [
        {
          "internalType": "bool",
          "name": "",
          "type": "bool"
        }
      ],
      "stateMutability": "view",
      "type": "function"
    },
    {
      "inputs": [],
      "name": "name",
      "outputs": [
        {
          "internalType": "string",
          "name": "",
          "type": "string"
        }
      ],
      "stateMutability": "view",
      "type": "function"
    },
    {
      "inputs": [
        {
          "internalType": "uint32",
          "name": "",
          "type": "uint32"
        },
        {
          "internalType": "bytes32",
          "name": "",
          "type": "bytes32"
        }
      ],
      "name": "nextNonce",
      "outputs": [
        {
          "internalType": "uint64",
          "name": "nonce",
          "type": "uint64"
        }
      ],
      "stateMutability": "view",
      "type": "function"
    },
    {
      "inputs": [],
      "name": "oAppVersion",
      "outputs": [
        {
          "internalType": "uint64",
          "name": "senderVersion",
          "type": "uint64"
        },
        {
          "internalType": "uint64",
          "name": "receiverVersion",
          "type": "uint64"
        }
      ],
      "stateMutability": "pure",
      "type": "function"
    },
    {
      "inputs": [],
      "name": "owner",
      "outputs": [
        {
          "internalType": "address",
          "name": "",
          "type": "address"
        }
      ],
      "stateMutability": "view",
      "type": "function"
    },
    {
      "inputs": [
        {
          "internalType": "uint32",
          "name": "eid",
          "type": "uint32"
        }
      ],
      "name": "peers",
      "outputs": [
        {
          "internalType": "bytes32",
          "name": "peer",
          "type": "bytes32"
        }
      ],
      "stateMutability": "view",
      "type": "function"
    },
    {
      "inputs": [
        {
          "internalType": "uint8",
          "name": "",
          "type": "uint8"
        }
      ],
      "name": "pools",
      "outputs": [
        {
          "internalType": "uint256",
          "name": "maxSupply",
          "type": "uint256"
        },
        {
          "internalType": "uint256",
          "name": "mintPrice",
          "type": "uint256"
        },
        {
          "internalType": "uint256",
          "name": "totalMinted",
          "type": "uint256"
        },
        {
          "internalType": "uint256",
          "name": "maxMintsPerWallet",
          "type": "uint256"
        },
        {
          "internalType": "bool",
          "name": "enabled",
          "type": "bool"
        }
      ],
      "stateMutability": "view",
      "type": "function"
    },
    {
      "inputs": [],
      "name": "renounceOwnership",
      "outputs": [],
      "stateMutability": "nonpayable",
      "type": "function"
    },
    {
      "inputs": [
        {
          "internalType": "address",
          "name": "_user",
          "type": "address"
        }
      ],
      "name": "resetUserMint",
      "outputs": [],
      "stateMutability": "nonpayable",
      "type": "function"
    },
    {
      "inputs": [
        {
          "internalType": "address",
          "name": "_user",
          "type": "address"
        },
        {
          "internalType": "uint8",
          "name": "_poolId",
          "type": "uint8"
        }
      ],
      "name": "resetUserMintForPool",
      "outputs": [],
      "stateMutability": "nonpayable",
      "type": "function"
    },
    {
      "inputs": [
        {
          "internalType": "bool",
          "name": "_enabled",
          "type": "bool"
        }
      ],
      "name": "setCrossChainEnabled",
      "outputs": [],
      "stateMutability": "nonpayable",
      "type": "function"
    },
    {
      "inputs": [
        {
          "internalType": "address",
          "name": "_delegate",
          "type": "address"
        }
      ],
      "name": "setDelegate",
      "outputs": [],
      "stateMutability": "nonpayable",
      "type": "function"
    },
    {
      "inputs": [
        {
          "components": [
            {
              "internalType": "uint32",
              "name": "eid",
              "type": "uint32"
            },
            {
              "internalType": "uint16",
              "name": "msgType",
              "type": "uint16"
            },
            {
              "internalType": "bytes",
              "name": "options",
              "type": "bytes"
            }
          ],
          "internalType": "struct EnforcedOptionParam[]",
          "name": "_enforcedOptions",
          "type": "tuple[]"
        }
      ],
      "name": "setEnforcedOptions",
      "outputs": [],
      "stateMutability": "nonpayable",
      "type": "function"
    },
    {
      "inputs": [
        {
          "internalType": "uint32",
          "name": "_dstEid",
          "type": "uint32"
        },
        {
          "internalType": "uint128",
          "name": "_gasLimit",
          "type": "uint128"
        }
      ],
      "name": "setGasLimit",
      "outputs": [],
      "stateMutability": "nonpayable",
      "type": "function"
    },
    {
      "inputs": [
        {
          "internalType": "bool",
          "name": "_enabled",
          "type": "bool"
        }
      ],
      "name": "setMintingEnabled",
      "outputs": [],
      "stateMutability": "nonpayable",
      "type": "function"
    },
    {
      "inputs": [
        {
          "internalType": "uint32",
          "name": "_eid",
          "type": "uint32"
        },
        {
          "internalType": "bytes32",
          "name": "_peer",
          "type": "bytes32"
        }
      ],
      "name": "setPeer",
      "outputs": [],
      "stateMutability": "nonpayable",
      "type": "function"
    },
    {
      "inputs": [
        {
          "internalType": "uint8",
          "name": "_poolId",
          "type": "uint8"
        },
        {
          "internalType": "uint256",
          "name": "_maxMints",
          "type": "uint256"
        }
      ],
      "name": "setPoolMintLimit",
      "outputs": [],
      "stateMutability": "nonpayable",
      "type": "function"
    },
    {
      "inputs": [
        {
          "internalType": "uint8",
          "name": "_poolId",
          "type": "uint8"
        },
        {
          "internalType": "uint256",
          "name": "_newPrice",
          "type": "uint256"
        }
      ],
      "name": "setPoolPrice",
      "outputs": [],
      "stateMutability": "nonpayable",
      "type": "function"
    },
    {
      "inputs": [
        {
          "internalType": "address",
          "name": "_sTokenAddress",
          "type": "address"
        }
      ],
      "name": "setSTokenAddress",
      "outputs": [],
      "stateMutability": "nonpayable",
      "type": "function"
    },
    {
      "inputs": [
        {
          "internalType": "uint8",
          "name": "_poolId",
          "type": "uint8"
        },
        {
          "internalType": "address[]",
          "name": "_accounts",
          "type": "address[]"
        },
        {
          "internalType": "bool",
          "name": "_status",
          "type": "bool"
        }
      ],
      "name": "setWhitelist",
      "outputs": [],
      "stateMutability": "nonpayable",
      "type": "function"
    },
    {
      "inputs": [],
      "name": "symbol",
      "outputs": [
        {
          "internalType": "string",
          "name": "",
          "type": "string"
        }
      ],
      "stateMutability": "view",
      "type": "function"
    },
    {
      "inputs": [],
      "name": "totalMaxSupply",
      "outputs": [
        {
          "internalType": "uint256",
          "name": "",
          "type": "uint256"
        }
      ],
      "stateMutability": "view",
      "type": "function"
    },
    {
      "inputs": [],
      "name": "totalSupply",
      "outputs": [
        {
          "internalType": "uint256",
          "name": "",
          "type": "uint256"
        }
      ],
      "stateMutability": "view",
      "type": "function"
    },
    {
      "inputs": [
        {
          "internalType": "address",
          "name": "to",
          "type": "address"
        },
        {
          "internalType": "uint256",
          "name": "value",
          "type": "uint256"
        }
      ],
      "name": "transfer",
      "outputs": [
        {
          "internalType": "bool",
          "name": "",
          "type": "bool"
        }
      ],
      "stateMutability": "nonpayable",
      "type": "function"
    },
    {
      "inputs": [
        {
          "internalType": "address",
          "name": "from",
          "type": "address"
        },
        {
          "internalType": "address",
          "name": "to",
          "type": "address"
        },
        {
          "internalType": "uint256",
          "name": "value",
          "type": "uint256"
        }
      ],
      "name": "transferFrom",
      "outputs": [
        {
          "internalType": "bool",
          "name": "",
          "type": "bool"
        }
      ],
      "stateMutability": "nonpayable",
      "type": "function"
    },
    {
      "inputs": [
        {
          "internalType": "address",
          "name": "newOwner",
          "type": "address"
        }
      ],
      "name": "transferOwnership",
      "outputs": [],
      "stateMutability": "nonpayable",
      "type": "function"
    },
    {
      "inputs": [
        {
          "internalType": "uint32",
          "name": "_dstEid",
          "type": "uint32"
        },
        {
          "internalType": "uint256",
          "name": "_amount",
          "type": "uint256"
        }
      ],
      "name": "transferToChain",
      "outputs": [],
      "stateMutability": "payable",
      "type": "function"
    },
    {
      "inputs": [
        {
          "internalType": "uint8",
          "name": "",
          "type": "uint8"
        },
        {
          "internalType": "address",
          "name": "",
          "type": "address"
        }
      ],
      "name": "whitelist",
      "outputs": [
        {
          "internalType": "bool",
          "name": "",
          "type": "bool"
        }
      ],
      "stateMutability": "view",
      "type": "function"
    },
    {
      "inputs": [],
      "name": "withdraw",
      "outputs": [],
      "stateMutability": "nonpayable",
      "type": "function"
    },
    {
      "stateMutability": "payable",
      "type": "receive"
    }
  ],
  "transactionHash": "0x8fe1ce8a54cff60f17e9fa4135d16fded7cff3b4acd79de99bf825ffcb487ef8",
  "args": [
    "0xF2de1E3000fbD29cD227aFc3B86721987B4AF701",
    "CrossChain Token",
    "CCT",
    "0x1a44076050125825900e736c501f859c50fE728c",
    [
      "1000000000000",
      "2000000000000",
      "3000000000000",
      "4000000000000"
    ],
    [
      1000000,
      500000,
      300000,
      200000
    ]
  ],
  "numDeployments": 2,
  "solcInputHash": "d67d82ed12b181400cbb3fe054cb7ecd",
  "bytecode": "0x60a0604052600980546001600160a01b03191673039e2fb66102314ce7b64ce5ce3e5183bc94ad38179055600f805461010161ffff19909116179055601180546001600160801b03191662030d401790553480156200005d57600080fd5b50604051620050c1380380620050c183398101604081905262000080916200050e565b8286818180898960036200009583826200067d565b506004620000a482826200067d565b5050506001600160a01b038116620000d757604051631e4fbdf760e01b8152600060048201526024015b60405180910390fd5b620000e2816200033c565b5060016006556001600160a01b0380831660805281166200011657604051632d618d8160e21b815260040160405180910390fd5b60805160405163ca5eb5e160e01b81526001600160a01b0383811660048301529091169063ca5eb5e190602401600060405180830381600087803b1580156200015e57600080fd5b505af115801562000173573d6000803e3d6000fd5b5050505050505050600482511480156200018e575060048151145b620001dc5760405162461bcd60e51b815260206004820152601360248201527f496e76616c696420706f6f6c20636f6e666967000000000000000000000000006044820152606401620000ce565b60005b60048160ff1610156200032f576000620001fb8260016200075f565b9050600060028260ff1611156200021457600262000217565b60015b60ff1690506040518060a00160405280620002376200038e60201b60201c565b6200024490600a6200087e565b868660ff16815181106200025c576200025c62000896565b6020026020010151620002709190620008ac565b8152602001868560ff16815181106200028d576200028d62000896565b602090810291909101810151825260008282018190526040808401869052606093840182905260ff87168252600a835280822085518082559386015160018201559085015160028201559284015160038401556080909301516004909201805460ff191692151592909217909155601080549192909162000310908490620008c6565b92505081905550505080806200032690620008dc565b915050620001df565b50505050505050620008fe565b600580546001600160a01b038381166001600160a01b0319831681179093556040519116919082907f8be0079c531659141344cd1fd0a4f28419497f9722a3daafe3b4186f6b6457e090600090a35050565b601290565b80516001600160a01b0381168114620003ab57600080fd5b919050565b634e487b7160e01b600052604160045260246000fd5b604051601f8201601f191681016001600160401b0381118282101715620003f157620003f1620003b0565b604052919050565b600082601f8301126200040b57600080fd5b81516001600160401b03811115620004275762000427620003b0565b60206200043d601f8301601f19168201620003c6565b82815285828487010111156200045257600080fd5b60005b838110156200047257858101830151828201840152820162000455565b506000928101909101919091529392505050565b600082601f8301126200049857600080fd5b815160206001600160401b03821115620004b657620004b6620003b0565b8160051b620004c7828201620003c6565b9283528481018201928281019087851115620004e257600080fd5b83870192505b848310156200050357825182529183019190830190620004e8565b979650505050505050565b60008060008060008060c087890312156200052857600080fd5b620005338762000393565b60208801519096506001600160401b03808211156200055157600080fd5b6200055f8a838b01620003f9565b965060408901519150808211156200057657600080fd5b620005848a838b01620003f9565b95506200059460608a0162000393565b94506080890151915080821115620005ab57600080fd5b620005b98a838b0162000486565b935060a0890151915080821115620005d057600080fd5b50620005df89828a0162000486565b9150509295509295509295565b600181811c908216806200060157607f821691505b6020821081036200062257634e487b7160e01b600052602260045260246000fd5b50919050565b601f82111562000678576000816000526020600020601f850160051c81016020861015620006535750805b601f850160051c820191505b8181101562000674578281556001016200065f565b5050505b505050565b81516001600160401b03811115620006995762000699620003b0565b620006b181620006aa8454620005ec565b8462000628565b602080601f831160018114620006e95760008415620006d05750858301515b600019600386901b1c1916600185901b17855562000674565b600085815260208120601f198616915b828110156200071a57888601518255948401946001909101908401620006f9565b5085821015620007395787850151600019600388901b60f8161c191681555b5050505050600190811b01905550565b634e487b7160e01b600052601160045260246000fd5b60ff81811683821601908111156200077b576200077b62000749565b92915050565b600181815b80851115620007c2578160001904821115620007a657620007a662000749565b80851615620007b457918102915b93841c939080029062000786565b509250929050565b600082620007db575060016200077b565b81620007ea575060006200077b565b81600181146200080357600281146200080e576200082e565b60019150506200077b565b60ff84111562000822576200082262000749565b50506001821b6200077b565b5060208310610133831016604e8410600b841016171562000853575081810a6200077b565b6200085f838362000781565b806000190482111562000876576200087662000749565b029392505050565b60006200088f60ff841683620007ca565b9392505050565b634e487b7160e01b600052603260045260246000fd5b80820281158282048414176200077b576200077b62000749565b808201808211156200077b576200077b62000749565b600060ff821660ff8103620008f557620008f562000749565b60010192915050565b60805161477d62000944600039600081816107660152818161103801528181611d25015281816125ff015281816128a00152818161338b0152613444015261477d6000f3fe6080604052600436106103fe5760003560e01c806382413eac11610213578063bb0b6a5311610123578063ebdaae4a116100ab578063f2fde38b1161007a578063f2fde38b14610d0c578063f818703314610d2c578063fa84ec1e14610d3f578063fb87a63514610d54578063ff7bd03d14610dcb57600080fd5b8063ebdaae4a14610c5c578063ed1694e014610cc0578063efc21e3f14610cd6578063f14beb8f14610cec57600080fd5b8063d074a72a116100f2578063d074a72a14610b75578063dd62ed3e14610bad578063e014812a14610bf3578063e403d5fe14610c09578063ea0f8d0614610c3c57600080fd5b8063bb0b6a5314610af2578063bc70b35414610b1f578063ca5eb5e114610b3f578063cdcdd54814610b5f57600080fd5b80639deee663116101a6578063a855078e11610175578063a855078e14610a5c578063a8c3319414610a7c578063a9059cbb14610a92578063b8e3cdd214610ab2578063b98bd07014610ad257600080fd5b80639deee663146109e75780639f5fa02814610a175780639fd6db1214610a2c578063a0617ad014610a4657600080fd5b806395368d2e116101e257806395368d2e1461094f57806395d89b4114610987578063988c8e091461099c5780639baa4c4e146109d257600080fd5b806382413eac146108d15780638c7d6fab146108f15780638da5cb5b146109115780638f1c6e4b1461092f57600080fd5b80633400288b1161030e5780635535d461116102a157806370a082311161027057806370a0823114610814578063715018a61461084a5780637517f1831461085f5780637d25a05e1461088157806381358498146108bc57600080fd5b80635535d461146107345780635e280f111461075457806365b9bacb146107885780636d9a8352146107a857600080fd5b80634d2fb559116102dd5780634d2fb559146106c05780634d48a48c146106df5780634ea3871a146106f457806351d698251461071457600080fd5b80633400288b146106555780633ccfd60b146106755780633e5590d61461068a57806347258206146106aa57600080fd5b806315f88c9211610391578063208d2ce411610360578063208d2ce4146105da57806323b872dd146105ed57806325996dae1461060d5780632868f84114610623578063313ce5671461063957600080fd5b806315f88c921461055057806317442b701461057b57806318160ddd1461059d5780631f5e1334146105b257600080fd5b80630b635b8c116103cd5780630b635b8c146104a75780630f54cdb6146104e257806312769c051461050557806313137d651461053d57600080fd5b80630398687a1461040a57806306fdde031461042c578063072f8ffb14610457578063095ea7b31461047757600080fd5b3661040557005b600080fd5b34801561041657600080fd5b5061042a610425366004613976565b610deb565b005b34801561043857600080fd5b50610441610efe565b60405161044e9190613a2b565b60405180910390f35b34801561046357600080fd5b5061042a610472366004613a53565b610f90565b34801561048357600080fd5b50610497610492366004613a88565b61101c565b604051901515815260200161044e565b3480156104b357600080fd5b506104976104c2366004613ab4565b600b60209081526000928352604080842090915290825290205460ff1681565b3480156104ee57600080fd5b506104f7600a81565b60405190815260200161044e565b34801561051157600080fd5b50600954610525906001600160a01b031681565b6040516001600160a01b03909116815260200161044e565b61042a61054b366004613b44565b611036565b34801561055c57600080fd5b506105666175e881565b60405163ffffffff909116815260200161044e565b34801561058757600080fd5b506040805160018152600260208201520161044e565b3480156105a957600080fd5b506002546104f7565b3480156105be57600080fd5b506105c7600181565b60405161ffff909116815260200161044e565b61042a6105e8366004613bf7565b6110f6565b3480156105f957600080fd5b50610497610608366004613c13565b611359565b34801561061957600080fd5b5061056661759581565b34801561062f57600080fd5b5061056661759e81565b34801561064557600080fd5b506040516012815260200161044e565b34801561066157600080fd5b5061042a610670366004613bf7565b61137d565b34801561068157600080fd5b5061042a611393565b34801561069657600080fd5b5061042a6106a5366004613c54565b611566565b3480156106b657600080fd5b5061056661759f81565b3480156106cc57600080fd5b50600f5461049790610100900460ff1681565b3480156106eb57600080fd5b506104f7609281565b34801561070057600080fd5b5061042a61070f366004613c70565b6115ba565b34801561072057600080fd5b5061042a61072f366004613c54565b6115d5565b34801561074057600080fd5b5061044161074f366004613c9f565b611629565b34801561076057600080fd5b506105257f000000000000000000000000000000000000000000000000000000000000000081565b34801561079457600080fd5b5061042a6107a3366004613cc9565b6116ce565b3480156107b457600080fd5b506107f86107c3366004613d01565b6001600160a01b03166000908152600d6020908152604080832054600e9092529091205460ff9091169163ffffffff90911690565b60408051921515835263ffffffff90911660208301520161044e565b34801561082057600080fd5b506104f761082f366004613d01565b6001600160a01b031660009081526020819052604090205490565b34801561085657600080fd5b5061042a61170c565b34801561086b57600080fd5b50610874611720565b60405161044e9190613d1e565b34801561088d57600080fd5b506108a461089c366004613bf7565b600092915050565b6040516001600160401b03909116815260200161044e565b3480156108c857600080fd5b506104f7600481565b3480156108dd57600080fd5b506104976108ec366004613d65565b61186b565b3480156108fd57600080fd5b5061042a61090c366004613dc0565b611880565b34801561091d57600080fd5b506005546001600160a01b0316610525565b34801561093b57600080fd5b5061042a61094a366004613d01565b611916565b34801561095b57600080fd5b5060115461096f906001600160801b031681565b6040516001600160801b03909116815260200161044e565b34801561099357600080fd5b506104416119c1565b3480156109a857600080fd5b5061096f6109b7366004613ddb565b6012602052600090815260409020546001600160801b031681565b3480156109de57600080fd5b5061042a6119d0565b3480156109f357600080fd5b50610497610a02366004613d01565b600d6020526000908152604090205460ff1681565b348015610a2357600080fd5b506104f7600181565b348015610a3857600080fd5b50600f546104979060ff1681565b348015610a5257600080fd5b506104f760105481565b348015610a6857600080fd5b506104f7610a77366004613a53565b611a4d565b348015610a8857600080fd5b5061056661767c81565b348015610a9e57600080fd5b50610497610aad366004613a88565b611aad565b348015610abe57600080fd5b5061042a610acd366004613d01565b611abb565b348015610ade57600080fd5b5061042a610aed366004613df6565b611b3c565b348015610afe57600080fd5b506104f7610b0d366004613ddb565b60076020526000908152604090205481565b348015610b2b57600080fd5b50610441610b3a366004613e37565b611b56565b348015610b4b57600080fd5b5061042a610b5a366004613d01565b611cfe565b348015610b6b57600080fd5b506104f761a4b181565b348015610b8157600080fd5b506104f7610b90366004613ab4565b600c60209081526000928352604080842090915290825290205481565b348015610bb957600080fd5b506104f7610bc8366004613e97565b6001600160a01b03918216600090815260016020908152604080832093909416825291909152205490565b348015610bff57600080fd5b506104f761e70881565b348015610c1557600080fd5b50610566610c24366004613d01565b600e6020526000908152604090205463ffffffff1681565b348015610c4857600080fd5b5061042a610c57366004613c70565b611d7d565b348015610c6857600080fd5b50610c7c610c77366004613dc0565b611d9f565b60405161044e9190600060a0820190508251825260208301516020830152604083015160408301526060830151606083015260808301511515608083015292915050565b348015610ccc57600080fd5b506105666175e781565b348015610ce257600080fd5b506104f761210581565b348015610cf857600080fd5b5061042a610d07366004613dc0565b611e5f565b348015610d1857600080fd5b5061042a610d27366004613d01565b611ee6565b61042a610d3a366004613dc0565b611f21565b348015610d4b57600080fd5b5061042a6122c8565b348015610d6057600080fd5b50610da1610d6f366004613dc0565b600a60205260009081526040902080546001820154600283015460038401546004909401549293919290919060ff1685565b6040805195865260208601949094529284019190915260608301521515608082015260a00161044e565b348015610dd757600080fd5b50610497610de6366004613eb5565b612342565b610df3612378565b60018460ff161080610e08575060048460ff16115b15610e265760405163015f4fdd60e31b815260040160405180910390fd5b60005b82811015610ef7576000848483818110610e4557610e45613ed1565b9050602002016020810190610e5a9190613d01565b90506001600160a01b038116610e835760405163e6c4247b60e01b815260040160405180910390fd5b60ff86166000818152600b602090815260408083206001600160a01b03861680855290835292819020805460ff191688151590811790915590519081529192917f93d109afa6c27787b42b91f0a146707ce353c59b69345e0967402e160baa29c8910160405180910390a350600101610e29565b5050505050565b606060038054610f0d90613ee7565b80601f0160208091040260200160405190810160405280929190818152602001828054610f3990613ee7565b8015610f865780601f10610f5b57610100808354040283529160200191610f86565b820191906000526020600020905b815481529060010190602001808311610f6957829003601f168201915b5050505050905090565b610f98612378565b60018160ff161080610fad575060048160ff16115b15610fcb5760405163015f4fdd60e31b815260040160405180910390fd5b6001600160a01b038216610ff25760405163e6c4247b60e01b815260040160405180910390fd5b60ff166000908152600c602090815260408083206001600160a01b03909416835292905290812055565b60003361102a8185856123a5565b60019150505b92915050565b7f00000000000000000000000000000000000000000000000000000000000000006001600160a01b03163314611086576040516391ac5e4f60e01b81523360048201526024015b60405180910390fd5b602087018035906110a09061109b908a613ddb565b6123b2565b146110de576110b26020880188613ddb565b60405163309afaf360e21b815263ffffffff90911660048201526020880135602482015260440161107d565b6110ed878787878787876123ee565b50505050505050565b600f54610100900460ff1661111e576040516306756ca560e21b815260040160405180910390fd5b8060000361113f5760405163162908e360e11b815260040160405180910390fd5b3360009081526020819052604090205481111561116f5760405163cd1c886760e01b815260040160405180910390fd5b611179338261254b565b60408051608081018252600080825233602080840191909152828401859052606083018290529251919290916111b191849101613f31565b60408051601f1981840301815291815263ffffffff86166000908152601260205290812054919250906001600160801b03166111f8576011546001600160801b0316611218565b63ffffffff85166000908152601260205260409020546001600160801b03165b9050600061124f82600061124860408051600360f01b602082015281516002818303018152602290910190915290565b9190612581565b9050600061126087858460006125e9565b9050609246036112c457600061127a3383600001516126ca565b90508061129a5760405163cd1c886760e01b815260040160405180910390fd5b6112bd88868560405180604001604052806000815260200160008152503061286d565b505061130e565b80513410156112e65760405163cd1c886760e01b815260040160405180910390fd5b61130c87858460405180604001604052808660000151815260200160008152503361286d565b505b6040805187815263ffffffff89166020820152339182917f85b64fdc692c993b9cf05759264f7cd75889f0df9c50982e441f18c50e6da327910160405180910390a350505050505050565b600033611367858285612978565b6113728585856129f1565b506001949350505050565b611385612378565b61138f8282612a50565b5050565b61139b612378565b4780156114295760006113b66005546001600160a01b031690565b6001600160a01b03168260405160006040518083038185875af1925050503d8060008114611400576040519150601f19603f3d011682016040523d82523d6000602084013e611405565b606091505b5050905080611427576040516312171d8360e31b815260040160405180910390fd5b505b60924603611563576009546040516370a0823160e01b81523060048201526001600160a01b039091169060009082906370a0823190602401602060405180830381865afa15801561147e573d6000803e3d6000fd5b505050506040513d601f19601f820116820180604052508101906114a29190613f89565b90508015611560576000826001600160a01b031663a9059cbb6114cd6005546001600160a01b031690565b6040516001600160e01b031960e084901b1681526001600160a01b039091166004820152602481018590526044016020604051808303816000875af115801561151a573d6000803e3d6000fd5b505050506040513d601f19601f8201168201806040525081019061153e9190613fa2565b90508061155e576040516312171d8360e31b815260040160405180910390fd5b505b50505b50565b61156e612378565b60018260ff161080611583575060048260ff16115b156115a15760405163015f4fdd60e31b815260040160405180910390fd5b60ff9091166000908152600a6020526040902060010155565b6115c2612378565b600f805460ff1916911515919091179055565b6115dd612378565b60018260ff1610806115f2575060048260ff16115b156116105760405163015f4fdd60e31b815260040160405180910390fd5b60ff9091166000908152600a6020526040902060030155565b60086020908152600092835260408084209091529082529020805461164d90613ee7565b80601f016020809104026020016040519081016040528092919081815260200182805461167990613ee7565b80156116c65780601f1061169b576101008083540402835291602001916116c6565b820191906000526020600020905b8154815290600101906020018083116116a957829003601f168201915b505050505081565b6116d6612378565b63ffffffff91909116600090815260126020526040902080546001600160801b0319166001600160801b03909216919091179055565b611714612378565b61171e6000612aa5565b565b60408051600480825260a082019092526060916000919060208201608080368337019050509050600060015b60048160ff16116117bc5760ff8082166000908152600a602052604090206004015416156117aa5780838360ff168151811061178a5761178a613ed1565b60ff90921660209283029190910190910152816117a681613feb565b9250505b806117b481613feb565b91505061174c565b5060008160ff166001600160401b038111156117da576117da613fbf565b604051908082528060200260200182016040528015611803578160200160208202803683370190505b50905060005b8260ff168160ff16101561186357838160ff168151811061182c5761182c613ed1565b6020026020010151828260ff168151811061184957611849613ed1565b60ff90921660209283029190910190910152600101611809565b509392505050565b6001600160a01b03811630145b949350505050565b611888612378565b60018160ff16108061189d575060048160ff16115b156118bb5760405163015f4fdd60e31b815260040160405180910390fd5b60ff81166000818152600a6020908152604091829020600401805460ff1916600190811790915591519182527faf7bb2f16df3983ae0c54e8f3296cc58faa68af9b8789a7480c1ce384f4774f291015b60405180910390a250565b61191e612378565b6001600160a01b0381166119455760405163e6c4247b60e01b815260040160405180910390fd5b6001600160a01b0381166000908152600d60209081526040808320805460ff19169055600e9091529020805463ffffffff1916905560015b60048160ff161161138f5760ff81166000908152600c602090815260408083206001600160a01b0386168452909152812055806119b981613feb565b91505061197d565b606060048054610f0d90613ee7565b6119d8612378565b60015b60048160ff1611611a155760ff81166000908152600a60205260409020600401805460ff1916905580611a0d81613feb565b9150506119db565b50604051600081527feefd85e7526781261456aef153a6d8f86593a1538c6dd8c331268356dec83116906020015b60405180910390a1565b600060018260ff161080611a64575060048260ff16115b15611a825760405163015f4fdd60e31b815260040160405180910390fd5b5060ff166000908152600c602090815260408083206001600160a01b03949094168352929052205490565b60003361102a8185856129f1565b611ac3612378565b6001600160a01b038116611aea5760405163e6c4247b60e01b815260040160405180910390fd5b600980546001600160a01b038381166001600160a01b0319831681179093556040519116919082907fee65344e433c3f97ac21708ea7cfc9f050264b43552489ecbc831d8f41a1124390600090a35050565b611b44612378565b61138f611b518284614062565b612af7565b63ffffffff8416600090815260086020908152604080832061ffff87168452909152812080546060929190611b8a90613ee7565b80601f0160208091040260200160405190810160405280929190818152602001828054611bb690613ee7565b8015611c035780601f10611bd857610100808354040283529160200191611c03565b820191906000526020600020905b815481529060010190602001808311611be657829003601f168201915b505050505090508051600003611c535783838080601f0160208091040260200160405190810160405280939291908181526020018383808284376000920191909152509294506118789350505050565b6000839003611c63579050611878565b60028310611ce157611caa84848080601f016020809104026020016040519081016040528093929190818152602001838380828437600092019190915250612c0992505050565b80611cb88460028188614187565b604051602001611cca939291906141b1565b604051602081830303815290604052915050611878565b8383604051639a6d49cd60e01b815260040161107d9291906141d9565b611d06612378565b60405163ca5eb5e160e01b81526001600160a01b0382811660048301527f0000000000000000000000000000000000000000000000000000000000000000169063ca5eb5e190602401600060405180830381600087803b158015611d6957600080fd5b505af1158015610ef7573d6000803e3d6000fd5b611d85612378565b600f80549115156101000261ff0019909216919091179055565b611dd36040518060a00160405280600081526020016000815260200160008152602001600081526020016000151581525090565b60018260ff161080611de8575060048260ff16115b15611e065760405163015f4fdd60e31b815260040160405180910390fd5b5060ff9081166000908152600a6020908152604091829020825160a08101845281548152600182015492810192909252600281015492820192909252600382015460608201526004909101549091161515608082015290565b611e67612378565b60018160ff161080611e7c575060048160ff16115b15611e9a5760405163015f4fdd60e31b815260040160405180910390fd5b60ff81166000818152600a60209081526040808320600401805460ff19169055519182527faf7bb2f16df3983ae0c54e8f3296cc58faa68af9b8789a7480c1ce384f4774f2910161190b565b611eee612378565b6001600160a01b038116611f1857604051631e4fbdf760e01b81526000600482015260240161107d565b61156381612aa5565b611f29612c35565b60018160ff161080611f3e575060048160ff16115b15611f5c5760405163015f4fdd60e31b815260040160405180910390fd5b600f5460ff161580611f83575060ff8082166000908152600a602052604090206004015416155b15611fa1576040516306756ca560e21b815260040160405180910390fd5b60ff81166000908152600a6020908152604080832060030154600c83528184203385529092529091205410611fe957604051635b21dfd360e11b815260040160405180910390fd5b60038160ff161115801561201a575060ff8082166000908152600b6020908152604080832033845290915290205416155b1561203857604051630b094f2760e31b815260040160405180910390fd5b60ff81166000908152600a60205260409020805460028201541061206f576040516327a01e0760e21b815260040160405180910390fd5b600061207d6012600a6142ec565b6120889060016142fb565b9050808260020154836000015461209f9190614312565b10156120be576040516327a01e0760e21b815260040160405180910390fd5b609246036120fc5760006120d63384600101546126ca565b9050806120f65760405163cd1c886760e01b815260040160405180910390fd5b50612121565b81600101543410156121215760405163cd1c886760e01b815260040160405180910390fd5b808260020160008282546121359190614325565b909155505060ff83166000908152600c602090815260408083203384529091528120805460019290612168908490614325565b9091555050336000908152600d602052604090205460ff166121ce57336000908152600d60205260409020805460ff191660011790556121a6612c5f565b336000908152600e60205260409020805463ffffffff191663ffffffff929092169190911790555b6092461461226957600082600101543411156121f65760018301546121f39034614312565b90505b801561226757604051600090339083908381818185875af1925050503d806000811461223e576040519150601f19603f3d011682016040523d82523d6000602084013e612243565b606091505b5050905080612265576040516312171d8360e31b815260040160405180910390fd5b505b505b6122733382612cb6565b6040805182815242602082015260ff85169133917f2d12dbe5a3ee54a61d1d93b75c3f17170c17f06386abbd86e86755372b6db6e6910160405180910390a36122bc3384612cec565b50506115636001600655565b6122d0612378565b60015b60048160ff16116123105760ff81166000908152600a60205260409020600401805460ff191660011790558061230881613feb565b9150506122d3565b50604051600181527feefd85e7526781261456aef153a6d8f86593a1538c6dd8c331268356dec8311690602001611a43565b600060208201803590600790839061235a9086613ddb565b63ffffffff1681526020810191909152604001600020541492915050565b6005546001600160a01b0316331461171e5760405163118cdaa760e01b815233600482015260240161107d565b6115608383836001612ee0565b63ffffffff8116600090815260076020526040812054806110305760405163f6ff4fb760e01b815263ffffffff8416600482015260240161107d565b600060078161240060208b018b613ddb565b63ffffffff1663ffffffff168152602001908152602001600020549050600088602001353060405160200161245192919091825260601b6bffffffffffffffffffffffff1916602082015260340190565b60408051601f1981840301815291905280516020909101209050811580159061247a5750808214155b156124985760405163e6c4247b60e01b815260040160405180910390fd5b60006124a687890189614338565b90506000815160028111156124bd576124bd613f1b565b036124d9576124d481602001518260400151612cb6565b61253f565b6001815160028111156124ee576124ee613f1b565b03612505576124d48160200151826040015161254b565b60028151600281111561251a5761251a613f1b565b0361253f57602080820151606083015161253f9261253a908e018e613ddb565b612fb5565b50505050505050505050565b6001600160a01b03821661257557604051634b637e8f60e11b81526000600482015260240161107d565b61138f826000836130f4565b606083600361259182600061321e565b61ffff16146125c5576125a581600061321e565b604051633a51740d60e01b815261ffff909116600482015260240161107d565b60006125d1858561327b565b90506125df866001836132f4565b9695505050505050565b60408051808201909152600080825260208201527f00000000000000000000000000000000000000000000000000000000000000006001600160a01b031663ddc28c586040518060a001604052808863ffffffff16815260200161264c896123b2565b8152602001878152602001868152602001851515815250306040518363ffffffff1660e01b81526004016126819291906143b5565b6040805180830381865afa15801561269d573d6000803e3d6000fd5b505050506040513d601f19601f820116820180604052508101906126c1919061447c565b95945050505050565b6000609246146126dc57506000611030565b6009546040516370a0823160e01b81526001600160a01b03858116600483015290911690839082906370a0823190602401602060405180830381865afa15801561272a573d6000803e3d6000fd5b505050506040513d601f19601f8201168201806040525081019061274e9190613f89565b101561275e576000915050611030565b6040516323b872dd60e01b81526001600160a01b03858116600483015230602483015260448201859052600091908316906323b872dd906064016020604051808303816000875af11580156127b7573d6000803e3d6000fd5b505050506040513d601f19601f820116820180604052508101906127db9190613fa2565b9050806127fb5760405163dd95b89f60e01b815260040160405180910390fd5b846001600160a01b03167fac6887df1a90350dc47880bbc48f40726e1263688d2b6d01eabef3f709f3f24a8560405161285a918152604060208201819052600c908201526b1b5a5b9d17dc185e5b595b9d60a21b606082015260800190565b60405180910390a2506001949350505050565b6128756138c0565b6000612884846000015161335f565b60208501519091501561289e5761289e8460200151613387565b7f00000000000000000000000000000000000000000000000000000000000000006001600160a01b0316632637a450826040518060a001604052808b63ffffffff1681526020016128ee8c6123b2565b81526020018a815260200189815260200160008960200151111515815250866040518463ffffffff1660e01b815260040161292a9291906143b5565b60806040518083038185885af1158015612948573d6000803e3d6000fd5b50505050506040513d601f19601f8201168201806040525081019061296d9190614498565b979650505050505050565b6001600160a01b0383811660009081526001602090815260408083209386168352929052205460001981101561155e57818110156129e257604051637dc7a0d960e11b81526001600160a01b0384166004820152602481018290526044810183905260640161107d565b61155e84848484036000612ee0565b6001600160a01b038316612a1b57604051634b637e8f60e11b81526000600482015260240161107d565b6001600160a01b038216612a455760405163ec442f0560e01b81526000600482015260240161107d565b6115608383836130f4565b63ffffffff8216600081815260076020908152604091829020849055815192835282018390527f238399d427b947898edb290f5ff0f9109849b1c3ba196a42e35f00c50a54b98b910160405180910390a15050565b600580546001600160a01b038381166001600160a01b0319831681179093556040519116919082907f8be0079c531659141344cd1fd0a4f28419497f9722a3daafe3b4186f6b6457e090600090a35050565b60005b8151811015612bce57612b29828281518110612b1857612b18613ed1565b602002602001015160400151612c09565b818181518110612b3b57612b3b613ed1565b60200260200101516040015160086000848481518110612b5d57612b5d613ed1565b60200260200101516000015163ffffffff1663ffffffff1681526020019081526020016000206000848481518110612b9757612b97613ed1565b60200260200101516020015161ffff1661ffff1681526020019081526020016000209081612bc5919061453e565b50600101612afa565b507fbe4864a8e820971c0247f5992e2da559595f7bf076a21cb5928d443d2a13b67481604051612bfe91906145fd565b60405180910390a150565b600281015161ffff811660031461138f5781604051639a6d49cd60e01b815260040161107d9190613a2b565b600260065403612c5857604051633ee5aeb560e01b815260040160405180910390fd5b6002600655565b600060924603612c70575061767c90565b61e7084603612c8057506175e790565b600a4603612c8f575061759f90565b6121054603612c9f57506175e890565b61a4b14603612caf575061759e90565b5061759590565b6001600160a01b038216612ce05760405163ec442f0560e01b81526000600482015260240161107d565b61138f600083836130f4565b6001600160a01b038216612cfe575050565b60018160ff161080612d13575060048160ff16115b15612d1c575050565b6000612d26612c5f565b90506000612d3382613469565b905060005b8151811015610ef7576000828281518110612d5557612d55613ed1565b6020026020010151905060006040518060800160405280600280811115612d7e57612d7e613f1b565b8152602001886001600160a01b03168152602001600081526020018760ff168152509050600081604051602001612db59190613f31565b60408051601f1981840301815291815263ffffffff85166000908152601260205290812054919250906001600160801b0316612dfc576011546001600160801b0316612e1c565b63ffffffff84166000908152601260205260409020546001600160801b03165b90506000612e4c82600061124860408051600360f01b602082015281516002818303018152602290910190915290565b90506000612e5d86858460006125e9565b905060924603612e9e578051612e72906136e1565b612e9886858460405180604001604052808660000151815260200160008152503061286d565b50612ece565b80514710612ece57612ecc86858460405180604001604052808660000151815260200160008152503061286d565b505b505060019094019350612d3892505050565b6001600160a01b038416612f0a5760405163e602df0560e01b81526000600482015260240161107d565b6001600160a01b038316612f3457604051634a1406b160e11b81526000600482015260240161107d565b6001600160a01b038085166000908152600160209081526040808320938716835292905220829055801561155e57826001600160a01b0316846001600160a01b03167f8c5be1e5ebec7d5bd14f71427d1e84f3dd0314c0f7b2291e5b200ac8c7c3b92584604051612fa791815260200190565b60405180910390a350505050565b60018260ff161080612fca575060048260ff16115b15612fe85760405163015f4fdd60e31b815260040160405180910390fd5b6001600160a01b03831661300f5760405163e6c4247b60e01b815260040160405180910390fd5b60ff82166000908152600c602090815260408083206001600160a01b03871684529091528120805460019290613046908490614325565b90915550506001600160a01b0383166000908152600d602052604090205460ff166130ae576001600160a01b0383166000908152600d60209081526040808320805460ff19166001179055600e9091529020805463ffffffff831663ffffffff199091161790555b8063ffffffff168260ff16846001600160a01b03167fd4f1347ee617991f69d7d3b026873b78a790a82679251f546821749cf4c739a060405160405180910390a4505050565b6001600160a01b03831661311f5780600260008282546131149190614325565b909155506131919050565b6001600160a01b038316600090815260208190526040902054818110156131725760405163391434e360e21b81526001600160a01b0385166004820152602481018290526044810183905260640161107d565b6001600160a01b03841660009081526020819052604090209082900390555b6001600160a01b0382166131ad576002805482900390556131cc565b6001600160a01b03821660009081526020819052604090208054820190555b816001600160a01b0316836001600160a01b03167fddf252ad1be2c89b69c2b068fc378daa952ba7f163c4a11628f55a4df523b3ef8360405161321191815260200190565b60405180910390a3505050565b600061322b826002614325565b835110156132725760405162461bcd60e51b8152602060048201526014602482015273746f55696e7431365f6f75744f66426f756e647360601b604482015260640161107d565b50016002015190565b60606001600160801b038216156132c357604080516001600160801b0319608086811b8216602084015285901b166030820152016040516020818303038152906040526132ed565b6040516001600160801b0319608085901b1660208201526030016040516020818303038152906040525b9392505050565b606083600361330482600061321e565b61ffff1614613318576125a581600061321e565b84600161332585516137cb565b613330906001614688565b86866040516020016133469594939291906146aa565b6040516020818303038152906040529150509392505050565b6000813414613383576040516304fb820960e51b815234600482015260240161107d565b5090565b60007f00000000000000000000000000000000000000000000000000000000000000006001600160a01b031663e4fe1d946040518163ffffffff1660e01b8152600401602060405180830381865afa1580156133e7573d6000803e3d6000fd5b505050506040513d601f19601f8201168201806040525081019061340b9190614711565b90506001600160a01b038116613434576040516329b99a9560e11b815260040160405180910390fd5b61138f6001600160a01b038216337f0000000000000000000000000000000000000000000000000000000000000000856137fa565b60408051600680825260e08201909252606091600091906020820160c080368337019050509050617595816000815181106134a6576134a6613ed1565b602002602001019063ffffffff16908163ffffffff168152505061767c816001815181106134d6576134d6613ed1565b602002602001019063ffffffff16908163ffffffff16815250506175e78160028151811061350657613506613ed1565b602002602001019063ffffffff16908163ffffffff168152505061759f8160038151811061353657613536613ed1565b602002602001019063ffffffff16908163ffffffff16815250506175e88160048151811061356657613566613ed1565b602002602001019063ffffffff16908163ffffffff168152505061759e8160058151811061359657613596613ed1565b602002602001019063ffffffff16908163ffffffff16815250506000805b82518110156135ff578463ffffffff168382815181106135d6576135d6613ed1565b602002602001015163ffffffff16146135f757816135f38161472e565b9250505b6001016135b4565b506000816001600160401b0381111561361a5761361a613fbf565b604051908082528060200260200182016040528015613643578160200160208202803683370190505b5090506000805b84518110156136d6578663ffffffff1685828151811061366c5761366c613ed1565b602002602001015163ffffffff16146136ce5784818151811061369157613691613ed1565b60200260200101518383815181106136ab576136ab613ed1565b63ffffffff90921660209283029190910190910152816136ca8161472e565b9250505b60010161364a565b509095945050505050565b609246146136ec5750565b6009546040516370a0823160e01b81523060048201526001600160a01b0390911690829082906370a0823190602401602060405180830381865afa158015613738573d6000803e3d6000fd5b505050506040513d601f19601f8201168201806040525081019061375c9190613f89565b1061138f57306001600160a01b03167fac6887df1a90350dc47880bbc48f40726e1263688d2b6d01eabef3f709f3f24a836040516137bf918152604060208201819052600b908201526a19d85cd7dc185e5b595b9d60aa1b606082015260800190565b60405180910390a25050565b600061ffff821115613383576040516306dfcc6560e41b8152601060048201526024810183905260440161107d565b604080516001600160a01b038581166024830152841660448201526064808201849052825180830390910181526084909101909152602080820180516001600160e01b03166323b872dd60e01b178152825161155e938893909260009283929183919082885af180613872576040513d6000823e3d81fd5b50506000513d9150811561388a578060011415613897565b6001600160a01b0384163b155b1561155e57604051635274afe760e01b81526001600160a01b038516600482015260240161107d565b60405180606001604052806000801916815260200160006001600160401b03168152602001613902604051806040016040528060008152602001600081525090565b905290565b803560ff8116811461391857600080fd5b919050565b60008083601f84011261392f57600080fd5b5081356001600160401b0381111561394657600080fd5b6020830191508360208260051b850101111561396157600080fd5b9250929050565b801515811461156357600080fd5b6000806000806060858703121561398c57600080fd5b61399585613907565b935060208501356001600160401b038111156139b057600080fd5b6139bc8782880161391d565b90945092505060408501356139d081613968565b939692955090935050565b60005b838110156139f65781810151838201526020016139de565b50506000910152565b60008151808452613a178160208601602086016139db565b601f01601f19169290920160200192915050565b6020815260006132ed60208301846139ff565b6001600160a01b038116811461156357600080fd5b60008060408385031215613a6657600080fd5b8235613a7181613a3e565b9150613a7f60208401613907565b90509250929050565b60008060408385031215613a9b57600080fd5b8235613aa681613a3e565b946020939093013593505050565b60008060408385031215613ac757600080fd5b613ad083613907565b91506020830135613ae081613a3e565b809150509250929050565b600060608284031215613afd57600080fd5b50919050565b60008083601f840112613b1557600080fd5b5081356001600160401b03811115613b2c57600080fd5b60208301915083602082850101111561396157600080fd5b600080600080600080600060e0888a031215613b5f57600080fd5b613b698989613aeb565b96506060880135955060808801356001600160401b0380821115613b8c57600080fd5b613b988b838c01613b03565b909750955060a08a01359150613bad82613a3e565b90935060c08901359080821115613bc357600080fd5b50613bd08a828b01613b03565b989b979a50959850939692959293505050565b803563ffffffff8116811461391857600080fd5b60008060408385031215613c0a57600080fd5b613aa683613be3565b600080600060608486031215613c2857600080fd5b8335613c3381613a3e565b92506020840135613c4381613a3e565b929592945050506040919091013590565b60008060408385031215613c6757600080fd5b613aa683613907565b600060208284031215613c8257600080fd5b81356132ed81613968565b803561ffff8116811461391857600080fd5b60008060408385031215613cb257600080fd5b613cbb83613be3565b9150613a7f60208401613c8d565b60008060408385031215613cdc57600080fd5b613ce583613be3565b915060208301356001600160801b0381168114613ae057600080fd5b600060208284031215613d1357600080fd5b81356132ed81613a3e565b6020808252825182820181905260009190848201906040850190845b81811015613d5957835160ff1683529284019291840191600101613d3a565b50909695505050505050565b60008060008060a08587031215613d7b57600080fd5b613d858686613aeb565b935060608501356001600160401b03811115613da057600080fd5b613dac87828801613b03565b90945092505060808501356139d081613a3e565b600060208284031215613dd257600080fd5b6132ed82613907565b600060208284031215613ded57600080fd5b6132ed82613be3565b60008060208385031215613e0957600080fd5b82356001600160401b03811115613e1f57600080fd5b613e2b8582860161391d565b90969095509350505050565b60008060008060608587031215613e4d57600080fd5b613e5685613be3565b9350613e6460208601613c8d565b925060408501356001600160401b03811115613e7f57600080fd5b613e8b87828801613b03565b95989497509550505050565b60008060408385031215613eaa57600080fd5b8235613ad081613a3e565b600060608284031215613ec757600080fd5b6132ed8383613aeb565b634e487b7160e01b600052603260045260246000fd5b600181811c90821680613efb57607f821691505b602082108103613afd57634e487b7160e01b600052602260045260246000fd5b634e487b7160e01b600052602160045260246000fd5b8151608082019060038110613f5657634e487b7160e01b600052602160045260246000fd5b82526020838101516001600160a01b0316908301526040808401519083015260609283015160ff16929091019190915290565b600060208284031215613f9b57600080fd5b5051919050565b600060208284031215613fb457600080fd5b81516132ed81613968565b634e487b7160e01b600052604160045260246000fd5b634e487b7160e01b600052601160045260246000fd5b600060ff821660ff810361400157614001613fd5565b60010192915050565b604051606081016001600160401b038111828210171561402c5761402c613fbf565b60405290565b604051601f8201601f191681016001600160401b038111828210171561405a5761405a613fbf565b604052919050565b60006001600160401b038084111561407c5761407c613fbf565b8360051b602061408d818301614032565b8681529185019181810190368411156140a557600080fd5b865b8481101561417b578035868111156140bf5760008081fd5b880160603682900312156140d35760008081fd5b6140db61400a565b6140e482613be3565b81526140f1868301613c8d565b86820152604080830135898111156141095760008081fd5b9290920191601f368185011261411f5760008081fd5b83358a81111561413157614131613fbf565b614142818301601f19168a01614032565b915080825236898287010111156141595760008081fd5b808986018a8401376000908201890152908201528452509183019183016140a7565b50979650505050505050565b6000808585111561419757600080fd5b838611156141a457600080fd5b5050820193919092039150565b600084516141c38184602089016139db565b8201838582376000930192835250909392505050565b60208152816020820152818360408301376000818301604090810191909152601f909201601f19160101919050565b600181815b8085111561424357816000190482111561422957614229613fd5565b8085161561423657918102915b93841c939080029061420d565b509250929050565b60008261425a57506001611030565b8161426757506000611030565b816001811461427d5760028114614287576142a3565b6001915050611030565b60ff84111561429857614298613fd5565b50506001821b611030565b5060208310610133831016604e8410600b84101617156142c6575081810a611030565b6142d08383614208565b80600019048211156142e4576142e4613fd5565b029392505050565b60006132ed60ff84168361424b565b808202811582820484141761103057611030613fd5565b8181038181111561103057611030613fd5565b8082018082111561103057611030613fd5565b60006080828403121561434a57600080fd5b604051608081018181106001600160401b038211171561436c5761436c613fbf565b60405282356003811061437e57600080fd5b8152602083013561438e81613a3e565b6020820152604083810135908201526143a960608401613907565b60608201529392505050565b6040815263ffffffff8351166040820152602083015160608201526000604084015160a060808401526143eb60e08401826139ff565b90506060850151603f198483030160a085015261440882826139ff565b60809690960151151560c08501525050506001600160a01b039190911660209091015290565b60006040828403121561444057600080fd5b604051604081018181106001600160401b038211171561446257614462613fbf565b604052825181526020928301519281019290925250919050565b60006040828403121561448e57600080fd5b6132ed838361442e565b6000608082840312156144aa57600080fd5b6144b261400a565b8251815260208301516001600160401b03811681146144d057600080fd5b60208201526144e2846040850161442e565b60408201529392505050565b601f821115611560576000816000526020600020601f850160051c810160208610156145175750805b601f850160051c820191505b8181101561453657828155600101614523565b505050505050565b81516001600160401b0381111561455757614557613fbf565b61456b816145658454613ee7565b846144ee565b602080601f8311600181146145a057600084156145885750858301515b600019600386901b1c1916600185901b178555614536565b600085815260208120601f198616915b828110156145cf578886015182559484019460019091019084016145b0565b50858210156145ed5787850151600019600388901b60f8161c191681555b5050505050600190811b01905550565b600060208083018184528085518083526040925060408601915060408160051b87010184880160005b8381101561467a57888303603f190185528151805163ffffffff1684528781015161ffff16888501528601516060878501819052614666818601836139ff565b968901969450505090860190600101614626565b509098975050505050505050565b61ffff8181168382160190808211156146a3576146a3613fd5565b5092915050565b600086516146bc818460208b016139db565b6001600160f81b031960f888811b82169285019283526001600160f01b031960f089901b16600184015286901b16600382015283516147028160048401602088016139db565b01600401979650505050505050565b60006020828403121561472357600080fd5b81516132ed81613a3e565b60006001820161474057614740613fd5565b506001019056fea26469706673582212207f78886cc05f3133a575f1b2f4e6bc142f22818e7e046b4272fb5859e171b0e564736f6c63430008160033",
  "devdoc": {
    "errors": {
      "ERC20InsufficientAllowance(address,uint256,uint256)": [
        {
          "details": "Indicates a failure with the `spender`s `allowance`. Used in transfers.",
          "params": {
            "allowance": "Amount of tokens a `spender` is allowed to operate with.",
            "needed": "Minimum amount required to perform a transfer.",
            "spender": "Address that may be allowed to operate on tokens without being their owner."
          }
        }
      ],
      "ERC20InsufficientBalance(address,uint256,uint256)": [
        {
          "details": "Indicates an error related to the current `balance` of a `sender`. Used in transfers.",
          "params": {
            "balance": "Current balance for the interacting account.",
            "needed": "Minimum amount required to perform a transfer.",
            "sender": "Address whose tokens are being transferred."
          }
        }
      ],
      "ERC20InvalidApprover(address)": [
        {
          "details": "Indicates a failure with the `approver` of a token to be approved. Used in approvals.",
          "params": {
            "approver": "Address initiating an approval operation."
          }
        }
      ],
      "ERC20InvalidReceiver(address)": [
        {
          "details": "Indicates a failure with the token `receiver`. Used in transfers.",
          "params": {
            "receiver": "Address to which tokens are being transferred."
          }
        }
      ],
      "ERC20InvalidSender(address)": [
        {
          "details": "Indicates a failure with the token `sender`. Used in transfers.",
          "params": {
            "sender": "Address whose tokens are being transferred."
          }
        }
      ],
      "ERC20InvalidSpender(address)": [
        {
          "details": "Indicates a failure with the `spender` to be approved. Used in approvals.",
          "params": {
            "spender": "Address that may be allowed to operate on tokens without being their owner."
          }
        }
      ],
      "OwnableInvalidOwner(address)": [
        {
          "details": "The owner is not a valid owner account. (eg. `address(0)`)"
        }
      ],
      "OwnableUnauthorizedAccount(address)": [
        {
          "details": "The caller account is not authorized to perform an operation."
        }
      ],
      "ReentrancyGuardReentrantCall()": [
        {
          "details": "Unauthorized reentrant call."
        }
      ],
      "SafeCastOverflowedUintDowncast(uint8,uint256)": [
        {
          "details": "Value doesn't fit in an uint of `bits` size."
        }
      ],
      "SafeERC20FailedOperation(address)": [
        {
          "details": "An operation with an ERC-20 token failed."
        }
      ]
    },
    "events": {
      "Approval(address,address,uint256)": {
        "details": "Emitted when the allowance of a `spender` for an `owner` is set by a call to {approve}. `value` is the new allowance."
      },
      "Transfer(address,address,uint256)": {
        "details": "Emitted when `value` tokens are moved from one account (`from`) to another (`to`). Note that `value` may be zero."
      }
    },
    "kind": "dev",
    "methods": {
      "allowInitializePath((uint32,bytes32,uint64))": {
        "details": "This indicates to the endpoint that the OApp has enabled msgs for this particular path to be received.This defaults to assuming if a peer has been set, its initialized. Can be overridden by the OApp if there is other logic to determine this.",
        "params": {
          "origin": "The origin information containing the source endpoint and sender address."
        },
        "returns": {
          "_0": "Whether the path has been initialized."
        }
      },
      "allowance(address,address)": {
        "details": "Returns the remaining number of tokens that `spender` will be allowed to spend on behalf of `owner` through {transferFrom}. This is zero by default. This value changes when {approve} or {transferFrom} are called."
      },
      "approve(address,uint256)": {
        "details": "See {IERC20-approve}. NOTE: If `value` is the maximum `uint256`, the allowance is not updated on `transferFrom`. This is semantically equivalent to an infinite approval. Requirements: - `spender` cannot be the zero address."
      },
      "balanceOf(address)": {
        "details": "Returns the value of tokens owned by `account`."
      },
      "combineOptions(uint32,uint16,bytes)": {
        "details": "If there is an enforced lzReceive option: - {gasLimit: 200k, msg.value: 1 ether} AND a caller supplies a lzReceive option: {gasLimit: 100k, msg.value: 0.5 ether} - The resulting options will be {gasLimit: 300k, msg.value: 1.5 ether} when the message is executed on the remote lzReceive() function.This presence of duplicated options is handled off-chain in the verifier/executor.",
        "params": {
          "_eid": "The endpoint ID.",
          "_extraOptions": "Additional options passed by the caller.",
          "_msgType": "The OAPP message type."
        },
        "returns": {
          "_0": "options The combination of caller specified options AND enforced options."
        }
      },
      "decimals()": {
        "details": "Returns the number of decimals used to get its user representation. For example, if `decimals` equals `2`, a balance of `505` tokens should be displayed to a user as `5.05` (`505 / 10 ** 2`). Tokens usually opt for a value of 18, imitating the relationship between Ether and Wei. This is the default value returned by this function, unless it's overridden. NOTE: This information is only used for _display_ purposes: it in no way affects any of the arithmetic of the contract, including {IERC20-balanceOf} and {IERC20-transfer}."
      },
      "isComposeMsgSender((uint32,bytes32,uint64),bytes,address)": {
        "details": "_origin The origin information containing the source endpoint and sender address.  - srcEid: The source chain endpoint ID.  - sender: The sender address on the src chain.  - nonce: The nonce of the message._message The lzReceive payload.Applications can optionally choose to implement separate composeMsg senders that are NOT the bridging layer.The default sender IS the OAppReceiver implementer.",
        "params": {
          "_sender": "The sender address."
        },
        "returns": {
          "_0": "isSender Is a valid sender."
        }
      },
      "lzReceive((uint32,bytes32,uint64),bytes32,bytes,address,bytes)": {
        "details": "Entry point for receiving messages or packets from the endpoint.Entry point for receiving msg/packet from the LayerZero endpoint.",
        "params": {
          "_executor": "The address of the executor for the received message.",
          "_extraData": "Additional arbitrary data provided by the corresponding executor.",
          "_guid": "The unique identifier for the received LayerZero message.",
          "_message": "The payload of the received message.",
          "_origin": "The origin information containing the source endpoint and sender address.  - srcEid: The source chain endpoint ID.  - sender: The sender address on the src chain.  - nonce: The nonce of the message."
        }
      },
      "name()": {
        "details": "Returns the name of the token."
      },
      "nextNonce(uint32,bytes32)": {
        "details": "_srcEid The source endpoint ID._sender The sender address.The path nonce starts from 1. If 0 is returned it means that there is NO nonce ordered enforcement.Is required by the off-chain executor to determine the OApp expects msg execution is ordered.This is also enforced by the OApp.By default this is NOT enabled. ie. nextNonce is hardcoded to return 0.",
        "returns": {
          "nonce": "The next nonce."
        }
      },
      "oAppVersion()": {
        "returns": {
          "receiverVersion": "The version of the OAppReceiver.sol implementation.",
          "senderVersion": "The version of the OAppSender.sol implementation."
        }
      },
      "owner()": {
        "details": "Returns the address of the current owner."
      },
      "renounceOwnership()": {
        "details": "Leaves the contract without owner. It will not be possible to call `onlyOwner` functions. Can only be called by the current owner. NOTE: Renouncing ownership will leave the contract without an owner, thereby disabling any functionality that is only available to the owner."
      },
      "setDelegate(address)": {
        "details": "Only the owner/admin of the OApp can call this function.Provides the ability for a delegate to set configs, on behalf of the OApp, directly on the Endpoint contract.",
        "params": {
          "_delegate": "The address of the delegate to be set."
        }
      },
      "setEnforcedOptions((uint32,uint16,bytes)[])": {
        "details": "Sets the enforced options for specific endpoint and message type combinations.Only the owner/admin of the OApp can call this function.Provides a way for the OApp to enforce things like paying for PreCrime, AND/OR minimum dst lzReceive gas amounts etc.These enforced options can vary as the potential options/execution on the remote may differ as per the msgType. eg. Amount of lzReceive() gas necessary to deliver a lzCompose() message adds overhead you dont want to pay if you are only making a standard LayerZero message ie. lzReceive() WITHOUT sendCompose().",
        "params": {
          "_enforcedOptions": "An array of EnforcedOptionParam structures specifying enforced options."
        }
      },
      "setPeer(uint32,bytes32)": {
        "details": "Only the owner/admin of the OApp can call this function.Indicates that the peer is trusted to send LayerZero messages to this OApp.Set this to bytes32(0) to remove the peer address.Peer is a bytes32 to accommodate non-evm chains.",
        "params": {
          "_eid": "The endpoint ID.",
          "_peer": "The address of the peer to be associated with the corresponding endpoint."
        }
      },
      "symbol()": {
        "details": "Returns the symbol of the token, usually a shorter version of the name."
      },
      "totalSupply()": {
        "details": "Returns the value of tokens in existence."
      },
      "transfer(address,uint256)": {
        "details": "See {IERC20-transfer}. Requirements: - `to` cannot be the zero address. - the caller must have a balance of at least `value`."
      },
      "transferFrom(address,address,uint256)": {
        "details": "See {IERC20-transferFrom}. Skips emitting an {Approval} event indicating an allowance update. This is not required by the ERC. See {xref-ERC20-_approve-address-address-uint256-bool-}[_approve]. NOTE: Does not update the allowance if the current allowance is the maximum `uint256`. Requirements: - `from` and `to` cannot be the zero address. - `from` must have a balance of at least `value`. - the caller must have allowance for ``from``'s tokens of at least `value`."
      },
      "transferOwnership(address)": {
        "details": "Transfers ownership of the contract to a new account (`newOwner`). Can only be called by the current owner."
      }
    },
    "version": 1
  },
  "userdoc": {
    "kind": "user",
    "methods": {
      "SEND()": {
        "notice": "Msg type for sending a string or any other data, for use in OAppOptionsType3 as an enforced option"
      },
      "allowInitializePath((uint32,bytes32,uint64))": {
        "notice": "Checks if the path initialization is allowed based on the provided origin."
      },
      "combineOptions(uint32,uint16,bytes)": {
        "notice": "Combines options for a given endpoint and message type."
      },
      "endpoint()": {
        "notice": "Retrieves the LayerZero endpoint associated with the OApp."
      },
      "isComposeMsgSender((uint32,bytes32,uint64),bytes,address)": {
        "notice": "Indicates whether an address is an approved composeMsg sender to the Endpoint."
      },
      "nextNonce(uint32,bytes32)": {
        "notice": "Retrieves the next nonce for a given source endpoint and sender address."
      },
      "oAppVersion()": {
        "notice": "Retrieves the OApp version information."
      },
      "peers(uint32)": {
        "notice": "Retrieves the peer (OApp) associated with a corresponding endpoint."
      },
      "setDelegate(address)": {
        "notice": "Sets the delegate address for the OApp."
      },
      "setPeer(uint32,bytes32)": {
        "notice": "Sets the peer address (OApp instance) for a corresponding endpoint."
      }
    },
    "version": 1
  },
  "storageLayout": {
    "storage": [
      {
        "astId": 3454,
        "contract": "contracts/SimpleTokenCrossChainMint.sol:SimpleTokenCrossChainMint",
        "label": "_balances",
        "offset": 0,
        "slot": "0",
        "type": "t_mapping(t_address,t_uint256)"
      },
      {
        "astId": 3460,
        "contract": "contracts/SimpleTokenCrossChainMint.sol:SimpleTokenCrossChainMint",
        "label": "_allowances",
        "offset": 0,
        "slot": "1",
        "type": "t_mapping(t_address,t_mapping(t_address,t_uint256))"
      },
      {
        "astId": 3462,
        "contract": "contracts/SimpleTokenCrossChainMint.sol:SimpleTokenCrossChainMint",
        "label": "_totalSupply",
        "offset": 0,
        "slot": "2",
        "type": "t_uint256"
      },
      {
        "astId": 3464,
        "contract": "contracts/SimpleTokenCrossChainMint.sol:SimpleTokenCrossChainMint",
        "label": "_name",
        "offset": 0,
        "slot": "3",
        "type": "t_string_storage"
      },
      {
        "astId": 3466,
        "contract": "contracts/SimpleTokenCrossChainMint.sol:SimpleTokenCrossChainMint",
        "label": "_symbol",
        "offset": 0,
        "slot": "4",
        "type": "t_string_storage"
      },
      {
        "astId": 3065,
        "contract": "contracts/SimpleTokenCrossChainMint.sol:SimpleTokenCrossChainMint",
        "label": "_owner",
        "offset": 0,
        "slot": "5",
        "type": "t_address"
      },
      {
        "astId": 4555,
        "contract": "contracts/SimpleTokenCrossChainMint.sol:SimpleTokenCrossChainMint",
        "label": "_status",
        "offset": 0,
        "slot": "6",
        "type": "t_uint256"
      },
      {
        "astId": 1909,
        "contract": "contracts/SimpleTokenCrossChainMint.sol:SimpleTokenCrossChainMint",
        "label": "peers",
        "offset": 0,
        "slot": "7",
        "type": "t_mapping(t_uint32,t_bytes32)"
      },
      {
        "astId": 2505,
        "contract": "contracts/SimpleTokenCrossChainMint.sol:SimpleTokenCrossChainMint",
        "label": "enforcedOptions",
        "offset": 0,
        "slot": "8",
        "type": "t_mapping(t_uint32,t_mapping(t_uint16,t_bytes_storage))"
      },
      {
        "astId": 6572,
        "contract": "contracts/SimpleTokenCrossChainMint.sol:SimpleTokenCrossChainMint",
        "label": "WRAPPED_S_TOKEN",
        "offset": 0,
        "slot": "9",
        "type": "t_address"
      },
      {
        "astId": 6577,
        "contract": "contracts/SimpleTokenCrossChainMint.sol:SimpleTokenCrossChainMint",
        "label": "pools",
        "offset": 0,
        "slot": "10",
        "type": "t_mapping(t_uint8,t_struct(PoolInfo)6430_storage)"
      },
      {
        "astId": 6583,
        "contract": "contracts/SimpleTokenCrossChainMint.sol:SimpleTokenCrossChainMint",
        "label": "whitelist",
        "offset": 0,
        "slot": "11",
        "type": "t_mapping(t_uint8,t_mapping(t_address,t_bool))"
      },
      {
        "astId": 6589,
        "contract": "contracts/SimpleTokenCrossChainMint.sol:SimpleTokenCrossChainMint",
        "label": "mintCountPerPool",
        "offset": 0,
        "slot": "12",
        "type": "t_mapping(t_uint8,t_mapping(t_address,t_uint256))"
      },
      {
        "astId": 6593,
        "contract": "contracts/SimpleTokenCrossChainMint.sol:SimpleTokenCrossChainMint",
        "label": "hasMintedGlobal",
        "offset": 0,
        "slot": "13",
        "type": "t_mapping(t_address,t_bool)"
      },
      {
        "astId": 6597,
        "contract": "contracts/SimpleTokenCrossChainMint.sol:SimpleTokenCrossChainMint",
        "label": "mintedOnChain",
        "offset": 0,
        "slot": "14",
        "type": "t_mapping(t_address,t_uint32)"
      },
      {
        "astId": 6600,
        "contract": "contracts/SimpleTokenCrossChainMint.sol:SimpleTokenCrossChainMint",
        "label": "mintingEnabled",
        "offset": 0,
        "slot": "15",
        "type": "t_bool"
      },
      {
        "astId": 6603,
        "contract": "contracts/SimpleTokenCrossChainMint.sol:SimpleTokenCrossChainMint",
        "label": "crossChainEnabled",
        "offset": 1,
        "slot": "15",
        "type": "t_bool"
      },
      {
        "astId": 6605,
        "contract": "contracts/SimpleTokenCrossChainMint.sol:SimpleTokenCrossChainMint",
        "label": "totalMaxSupply",
        "offset": 0,
        "slot": "16",
        "type": "t_uint256"
      },
      {
        "astId": 6608,
        "contract": "contracts/SimpleTokenCrossChainMint.sol:SimpleTokenCrossChainMint",
        "label": "defaultGasLimit",
        "offset": 0,
        "slot": "17",
        "type": "t_uint128"
      },
      {
        "astId": 6612,
        "contract": "contracts/SimpleTokenCrossChainMint.sol:SimpleTokenCrossChainMint",
        "label": "crossChainGasLimits",
        "offset": 0,
        "slot": "18",
        "type": "t_mapping(t_uint32,t_uint128)"
      }
    ],
    "types": {
      "t_address": {
        "encoding": "inplace",
        "label": "address",
        "numberOfBytes": "20"
      },
      "t_bool": {
        "encoding": "inplace",
        "label": "bool",
        "numberOfBytes": "1"
      },
      "t_bytes32": {
        "encoding": "inplace",
        "label": "bytes32",
        "numberOfBytes": "32"
      },
      "t_bytes_storage": {
        "encoding": "bytes",
        "label": "bytes",
        "numberOfBytes": "32"
      },
      "t_mapping(t_address,t_bool)": {
        "encoding": "mapping",
        "key": "t_address",
        "label": "mapping(address => bool)",
        "numberOfBytes": "32",
        "value": "t_bool"
      },
      "t_mapping(t_address,t_mapping(t_address,t_uint256))": {
        "encoding": "mapping",
        "key": "t_address",
        "label": "mapping(address => mapping(address => uint256))",
        "numberOfBytes": "32",
        "value": "t_mapping(t_address,t_uint256)"
      },
      "t_mapping(t_address,t_uint256)": {
        "encoding": "mapping",
        "key": "t_address",
        "label": "mapping(address => uint256)",
        "numberOfBytes": "32",
        "value": "t_uint256"
      },
      "t_mapping(t_address,t_uint32)": {
        "encoding": "mapping",
        "key": "t_address",
        "label": "mapping(address => uint32)",
        "numberOfBytes": "32",
        "value": "t_uint32"
      },
      "t_mapping(t_uint16,t_bytes_storage)": {
        "encoding": "mapping",
        "key": "t_uint16",
        "label": "mapping(uint16 => bytes)",
        "numberOfBytes": "32",
        "value": "t_bytes_storage"
      },
      "t_mapping(t_uint32,t_bytes32)": {
        "encoding": "mapping",
        "key": "t_uint32",
        "label": "mapping(uint32 => bytes32)",
        "numberOfBytes": "32",
        "value": "t_bytes32"
      },
      "t_mapping(t_uint32,t_mapping(t_uint16,t_bytes_storage))": {
        "encoding": "mapping",
        "key": "t_uint32",
        "label": "mapping(uint32 => mapping(uint16 => bytes))",
        "numberOfBytes": "32",
        "value": "t_mapping(t_uint16,t_bytes_storage)"
      },
      "t_mapping(t_uint32,t_uint128)": {
        "encoding": "mapping",
        "key": "t_uint32",
        "label": "mapping(uint32 => uint128)",
        "numberOfBytes": "32",
        "value": "t_uint128"
      },
      "t_mapping(t_uint8,t_mapping(t_address,t_bool))": {
        "encoding": "mapping",
        "key": "t_uint8",
        "label": "mapping(uint8 => mapping(address => bool))",
        "numberOfBytes": "32",
        "value": "t_mapping(t_address,t_bool)"
      },
      "t_mapping(t_uint8,t_mapping(t_address,t_uint256))": {
        "encoding": "mapping",
        "key": "t_uint8",
        "label": "mapping(uint8 => mapping(address => uint256))",
        "numberOfBytes": "32",
        "value": "t_mapping(t_address,t_uint256)"
      },
      "t_mapping(t_uint8,t_struct(PoolInfo)6430_storage)": {
        "encoding": "mapping",
        "key": "t_uint8",
        "label": "mapping(uint8 => struct SimpleTokenCrossChainMint.PoolInfo)",
        "numberOfBytes": "32",
        "value": "t_struct(PoolInfo)6430_storage"
      },
      "t_string_storage": {
        "encoding": "bytes",
        "label": "string",
        "numberOfBytes": "32"
      },
      "t_struct(PoolInfo)6430_storage": {
        "encoding": "inplace",
        "label": "struct SimpleTokenCrossChainMint.PoolInfo",
        "members": [
          {
            "astId": 6421,
            "contract": "contracts/SimpleTokenCrossChainMint.sol:SimpleTokenCrossChainMint",
            "label": "maxSupply",
            "offset": 0,
            "slot": "0",
            "type": "t_uint256"
          },
          {
            "astId": 6423,
            "contract": "contracts/SimpleTokenCrossChainMint.sol:SimpleTokenCrossChainMint",
            "label": "mintPrice",
            "offset": 0,
            "slot": "1",
            "type": "t_uint256"
          },
          {
            "astId": 6425,
            "contract": "contracts/SimpleTokenCrossChainMint.sol:SimpleTokenCrossChainMint",
            "label": "totalMinted",
            "offset": 0,
            "slot": "2",
            "type": "t_uint256"
          },
          {
            "astId": 6427,
            "contract": "contracts/SimpleTokenCrossChainMint.sol:SimpleTokenCrossChainMint",
            "label": "maxMintsPerWallet",
            "offset": 0,
            "slot": "3",
            "type": "t_uint256"
          },
          {
            "astId": 6429,
            "contract": "contracts/SimpleTokenCrossChainMint.sol:SimpleTokenCrossChainMint",
            "label": "enabled",
            "offset": 0,
            "slot": "4",
            "type": "t_bool"
          }
        ],
        "numberOfBytes": "160"
      },
      "t_uint128": {
        "encoding": "inplace",
        "label": "uint128",
        "numberOfBytes": "16"
      },
      "t_uint16": {
        "encoding": "inplace",
        "label": "uint16",
        "numberOfBytes": "2"
      },
      "t_uint256": {
        "encoding": "inplace",
        "label": "uint256",
        "numberOfBytes": "32"
      },
      "t_uint32": {
        "encoding": "inplace",
        "label": "uint32",
        "numberOfBytes": "4"
      },
      "t_uint8": {
        "encoding": "inplace",
        "label": "uint8",
        "numberOfBytes": "1"
      }
    }
  }
}